:1000000019C02BC02AC029C028C027C026C025C0BF
:1000100024C023C022C021C020C01FC01EC01DC0DC
:100020001CC01BC01AC019C018C017C016C015C00C
:1000300014C013C011241FBECFEFD2E0DEBFCDBF6E
:1000400011E0A0E0B1E0E2E2F4E002C005900D9220
:10005000A430B107D9F7ABD1E2C1D2CF1092BC0026
:1000600080E28093B8001092B9000895982F84EA36
:100070008093BC008091BC0087FFFCCF8091B900C9
:10008000887F8830A1F580E98093BB0084E8809365
:10009000BC008091BC0087FFFCCF8091B900887FB5
:1000A000883129F56093BB0084E88093BC0080917F
:1000B000BC0087FFFCCF8091B900887F8832B9F4FB
:1000C0009093BB0084E88093BC008091BC0087FFC4
:1000D000FCCF8091B900887F883249F484E980930D
:1000E000BC0080E29EE40197F1F780E0089581E092
:1000F0000895982F84EA8093BC008091BC0087FF0C
:10010000FCCF8091B900887F883009F064C080E915
:100110008093BB0084E88093BC008091BC0087FF83
:10012000FCCF8091B900887F883109F054C090934A
:10013000BB0084E88093BC008091BC0087FFFCCFAB
:100140008091B900887F883209F045C08CED95E038
:1001500028EC30E0F9013197F1F70197D9F784EAFB
:100160008093BC008091BC0087FFFCCF8091B900D8
:10017000887F803181F581E98093BB0084E880939A
:10018000BC008091BC0087FFFCCF8091B900887FC4
:10019000803409F584E88093BC008091BC0087FF1F
:1001A000FCCF8091B900887F8835A9F49091BB007D
:1001B00084E88093BC008091BC0087FFFCCF8091D5
:1001C000BB00392F20E0482F50E0422B532B84E90D
:1001D0008093BC0002C041E050E0CA01089514B809
:1001E00015B813B88CE78AB91BB819B88FE387B96B
:1001F00080E388B916B808953C9820E080E035E0A7
:10020000459800000000349B03C0880F816001C046
:10021000880F932F9A95F1F7459A932F9A95F1F7B6
:100220002F5F283069F7459895E09A95F1F7459A40
:1002300008953C9A20E045E032E087FF02C0449AEE
:1002400001C04498459A942F9A95F1F74598932FB9
:100250009A95F1F72F5F283011F0880FEECF0895AF
:100260003C9A30E055E042E097FF02C0449A01C05A
:1002700044984598252F2A95F1F7459A242F2A95D9
:10028000F1F73F5F303119F0880F991FEDCF459896
:1002900085E08A95F1F7459A08953C9820E030E092
:1002A00040E055E0459800000000C901880F991F03
:1002B000349B03C09C01216001C09C01852F8A955D
:1002C000F1F7459A852F8A95F1F74F5F403151F745
:1002D000459885E08A95F1F7459AC9010895FF92FE
:1002E0000F931F93F82E8B013C9A449882E08A95D5
:1002F000F1F780E99EDF8F2D9CDFC801B1DF459AC1
:1003000085E08A95F1F74598449A1F910F91FF90E7
:10031000089581E060E572E0E2DF08950F931F9396
:100320003C9A449882E08A95F1F780E982DF459A09
:1003300015E0812F8A95F1F74598449A80E079DF9E
:10034000459A812F8A95F1F74598449A81E971DFA2
:10035000459A1A95F1F74598449A4EDF4498182F1C
:1003600000E04ADF282F30E0202B312BC9011F91FC
:100370000F9108951092C5008CE08093C40088E925
:100380008093C10086E08093C2000895582F282FE3
:10039000392FF90107C08091C00085FFFCCF819102
:1003A0008093C6008E2F851B8617A8F30895EF92C1
:1003B000FF920F931F93DF93CF9300D0CDB7DEB79B
:1003C0001A8219820CDF1092C5008CE08093C40061
:1003D00088E98093C10086E08093C20088EB9BE0AF
:1003E00028EC30E0F9013197F1F70197D9F780E077
:1003F00091E062E0CBDF7E010894E11CF11C08EC87
:1004000010E08CDF99838A83C70162E0BFDF80EB55
:1004100096E3F8013197F1F70197D9F7F2CFF89405
:02042000FFCF0C
:040422004F4B00003C
:00000001FF
