:1000000019C02BC02AC029C028C027C026C025C0BF
:1000100024C023C022C021C020C01FC01EC01DC0DC
:100020001CC01BC01AC019C018C017C016C015C00C
:1000300014C013C011241FBECFEFD2E0DEBFCDBF6E
:1000400011E0A0E0B1E0EAE3F4E002C005900D9217
:10005000A430B107D9F7B6D1EEC1D2CF1092BC000F
:1000600080E28093B8001092B9000895982F84EA36
:100070008093BC008091BC0087FFFCCF8091B900C9
:10008000887F8830A1F580E98093BB0084E8809365
:10009000BC008091BC0087FFFCCF8091B900887FB5
:1000A000883129F56093BB0084E88093BC0080917F
:1000B000BC0087FFFCCF8091B900887F8832B9F4FB
:1000C0009093BB0084E88093BC008091BC0087FFC4
:1000D000FCCF8091B900887F883249F484E980930D
:1000E000BC0080E29EE40197F1F780E0089581E092
:1000F0000895982F84EA8093BC008091BC0087FF0C
:10010000FCCF8091B900887F883009F05AC080E91F
:100110008093BB0084E88093BC008091BC0087FF83
:10012000FCCF8091B900887F883109F04AC0909354
:10013000BB0084E88093BC008091BC0087FFFCCFAB
:100140008091B900887F8832E1F584EA8093BC0011
:100150008091BC0087FFFCCF8091B900887F8031FF
:1001600081F581E98093BB0084E88093BC00809195
:10017000BC0087FFFCCF8091B900887F803409F5EF
:1001800084E88093BC008091BC0087FFFCCF809105
:10019000B900887F8835A9F49091BB0084E88093EA
:1001A000BC008091BC0087FFFCCF8091BB00392F41
:1001B00020E0482F50E0422B532B84E98093BC0071
:1001C00002C041E050E0CA01089514B815B813B850
:1001D0008CE78AB91BB819B88FE387B980E388B96F
:1001E00016B808953C9820E080E048E03AE0459A4F
:1001F00000000000349B03C0880F816001C0880F9D
:10020000942F9A95F1F74598932F9A95F1F72F5FD0
:10021000283069F708953C9A20E04AE038E087FFEB
:1002200002C0449A01C04498459A942F9A95F1F7D8
:100230004598932F9A95F1F72F5F283011F0880F8A
:10024000EECF459A3C9808953C9A30E055E042E064
:1002500097FF02C0449A01C04498459A252F2A95D9
:10026000F1F74598242F2A95F1F73F5F303119F0C7
:10027000880F991FEDCF08953C9820E030E040E0D2
:1002800065E05AE0459AC901880F991F349B03C065
:100290009C01216001C09C01862F8A95F1F7459849
:1002A000852F8A95F1F74F5F403161F7C9010895B5
:1002B0001F9380E9B0DF15E0812F8A95F1F781E087
:1002C000AADF812F8A95F1F780E592E0BDDF1A95CC
:1002D000F1F71F910895FF920F931F933C9A449852
:1002E00082E08A95F1F7459818E0812F8A95F1F719
:1002F00080E991DF4AE0F42E8F2D8A95F1F7459839
:100300008F2D8A95F1F780E086DF8F2D8A95F1F7A2
:100310004598812F8A95F1F7459A812F8A95F1F7B3
:1003200044983C9A1A95F1F745988F2D8A95F1F7E4
:1003300081E971DF8F2D8A95F1F745988F2D8A9588
:10034000F1F750DF459A182F00E044983C9A459AFF
:100350008F2D8A95F1F745988F2D8A95F1F742DF19
:10036000282F449A3C9A459A8F2D8A95F1F7459803
:100370004498FA94F1F7459A449A30E0202B312BB7
:10038000C9011F910F91FF9008951092C5008CE054
:100390008093C40088E98093C10086E08093C20006
:1003A0000895582F282F392FF90107C08091C000D8
:1003B00085FFFCCF81918093C6008E2F851B861709
:1003C000A8F30895EF92FF920F931F93DF93CF93BB
:1003D00000D0CDB7DEB71A821982F7DE1092C500C1
:1003E0008CE08093C40088E98093C10086E080930C
:1003F000C20088EB9BE028EC30E0F9013197F1F77F
:100400000197D9F780E091E062E0CBDF27DE7E0143
:100410000894E11CF11C08EC10E05DDF99838A83ED
:10042000C70162E0BEDF80EB96E3F8013197F1F798
:0A0430000197D9F7F2CFF894FFCF3F
:04043A004F4B000024
:00000001FF
