:1000000019C02BC02AC029C028C027C026C025C0BF
:1000100024C023C022C021C020C01FC01EC01DC0DC
:100020001CC01BC01AC019C018C017C016C015C00C
:1000300014C013C011241FBECFEFD2E0DEBFCDBF6E
:1000400011E0A0E0B1E0EAEFF3E002C005900D920C
:10005000A430B107D9F794D1CEC1D2CF1092BC0051
:100060008CE08093B8001092B9000895982F84EA2C
:100070008093BC008091BC0087FFFCCF8091B900C9
:10008000887F8830A1F580E98093BB0084E8809365
:10009000BC008091BC0087FFFCCF8091B900887FB5
:1000A000883129F56093BB0084E88093BC0080917F
:1000B000BC0087FFFCCF8091B900887F8832B9F4FB
:1000C0009093BB0084E88093BC008091BC0087FFC4
:1000D000FCCF8091B900887F883249F484E980930D
:1000E000BC0080E29EE40197F1F780E0089581E092
:1000F0000895982F84EA8093BC008091BC0087FF0C
:10010000FCCF8091B900887F883009F062C080E917
:100110008093BB0084E88093BC008091BC0087FF83
:10012000FCCF8091B900887F883109F052C090934C
:10013000BB0084E88093BC008091BC0087FFFCCFAB
:100140008091B900887F883209F043C084EA8093A7
:10015000BC008091BC0087FFFCCF8091B900887FF4
:100160008031B9F581E98093BB0084E88093BC00BD
:100170008091BC0087FFFCCF8091B900887F8034DC
:1001800041F584E88093BC008091BC0087FFFCCFE0
:100190008091B900887F8835E1F49091BB0084E8B4
:1001A0008093BC008091BC0087FFFCCF8091B90098
:1001B000887F883571F43C9A44988091BB00392F30
:1001C00020E0482F50E0422B532B84E98093BC0061
:1001D00002C041E050E0CA01089514B815B813B840
:1001E0008CE78AB91BB819B88FE387B918B816B865
:1001F00008953C9A20E045E032E087FF02C0449A2F
:1002000001C04498459A942F9A95F1F74598932FF9
:100210009A95F1F72F5F283011F0880FEECF0895EF
:100220003C9A30E055E042E097FF02C0449A01C09A
:100230004498459A252F2A95F1F74598242F2A9519
:10024000F1F73F5F303119F0880F991FEDCF089516
:100250003C9820E080E032E0349B03C0880F81604E
:1002600001C0880F459A932F9A95F1F74598932FDF
:100270009A95F1F72F5F283079F708953C9882E03E
:100280008A95F1F720E030E040E052E0C901880FA4
:10029000991F349B03C09C01216001C09C01459AB9
:1002A000852F8A95F1F74598852F8A95F1F74F5F4D
:1002B000403161F7C90108951F9381E99ADF15E084
:1002C000812F8A95F1F781E094DF812F8A95F1F7EC
:1002D00080E592E0A5DF1A95F1F71F910895FF924E
:1002E0000F931F933C9A459A449A45E0F42E8F2D24
:1002F0008A95F1F7449881E97CDF459A8F2D8A959C
:10030000F1F7449880E075DF3C9A459A449A8F2D26
:100310008A95F1F7449880E96CDF459A8F2D8A958C
:10032000F1F7449895DF182F00E0459AFA94F1F719
:1003300044988EDF282F30E0202B312BC9011F91EC
:100340000F91FF9008951092C5008CE08093C40037
:1003500088E98093C10086E08093C2000895582FF9
:10036000282F392FF90107C08091C00085FFFCCFED
:1003700081918093C6008E2F851B8617A8F3089560
:10038000EF92FF920F931F93DF93CF9300D0CDB7DF
:10039000DEB71A82198221DF1092C5008CE08093AB
:1003A000C40088E98093C10086E08093C20056DED5
:1003B00088EB9BE028EC30E0F9013197F1F70197E9
:1003C000D9F780E091E062E0CADF7E010894E11C89
:1003D000F11C08EC10E080E090E08BDE99838A83CA
:1003E000C70162E0BCDF80E29EE4F8013197F1F7DB
:0A03F0000197D9F7F0CFF894FFCF82
:0403FA004F4B000065
:00000001FF
