:1000000019C04EC01FC01EC01DC01CC01BC01AC0DE
:1000100019C018C017C016C015C014C013C012C034
:1000200011C010C00FC00EC00DC00CC00BC00AC064
:1000300009C008C011241FBECFEFD2E0DEBFCDBF84
:1000400041D07DC0DDCF14B815B813B81AB81BB8AD
:1000500019B88CE387B918B816B808951092C5007E
:1000600083E08093C40088E98093C10086E0809398
:10007000C2000895582F282F392FF90107C0809109
:10008000C00085FFFCCF81918093C6008E2F851B19
:100090008617A8F3089582E080936900E89A08958E
:1000A0001F920F920FB60F9211248F939F9388B1D6
:1000B00094E0892788B99F918F910F900FBE0F9080
:1000C0001F901895F894BFDF82E080936900E89A4A
:1000D000789488B194E0892788B988E893E128EB7F
:1000E00030E0F9013197F1F70197D9F788B194E041
:1000F000892788B988E893E128EB30E0F901319746
:10010000F1F70197D9F788B194E0892788B988E891
:1001100093E128EB30E0F9013197F1F70197D9F736
:1001200088B194E0892788B988E893E128EB30E02A
:10013000F9013197F1F70197D9F74298FFCFF89479
:02014000FFCFEF
:00000001FF
